{
  "address": "0x4273FB0Af79568b3aCe1550919Ca461E4e40D41D",
  "abi": [
    {
      "inputs": [
        {
          "internalType": "contract IUniswapV3Factory",
          "name": "_UNISWAP_V3_FACTORY",
          "type": "address"
        },
        {
          "internalType": "uint8",
          "name": "_CARDINALITY_PER_MINUTE",
          "type": "uint8"
        }
      ],
      "stateMutability": "nonpayable",
      "type": "constructor"
    },
    {
      "inputs": [],
      "name": "CARDINALITY_PER_MINUTE",
      "outputs": [
        {
          "internalType": "uint8",
          "name": "",
          "type": "uint8"
        }
      ],
      "stateMutability": "view",
      "type": "function"
    },
    {
      "inputs": [],
      "name": "UNISWAP_V3_FACTORY",
      "outputs": [
        {
          "internalType": "contract IUniswapV3Factory",
          "name": "",
          "type": "address"
        }
      ],
      "stateMutability": "view",
      "type": "function"
    },
    {
      "inputs": [
        {
          "internalType": "uint24",
          "name": "feeTier",
          "type": "uint24"
        }
      ],
      "name": "addNewFeeTier",
      "outputs": [],
      "stateMutability": "nonpayable",
      "type": "function"
    },
    {
      "inputs": [
        {
          "internalType": "address",
          "name": "tokenA",
          "type": "address"
        },
        {
          "internalType": "address",
          "name": "tokenB",
          "type": "address"
        },
        {
          "internalType": "uint32",
          "name": "period",
          "type": "uint32"
        }
      ],
      "name": "prepareAllAvailablePoolsWithTimePeriod",
      "outputs": [
        {
          "internalType": "address[]",
          "name": "preparedPools",
          "type": "address[]"
        }
      ],
      "stateMutability": "nonpayable",
      "type": "function"
    },
    {
      "inputs": [
        {
          "internalType": "address",
          "name": "tokenA",
          "type": "address"
        },
        {
          "internalType": "address",
          "name": "tokenB",
          "type": "address"
        },
        {
          "internalType": "uint24[]",
          "name": "feeTiers",
          "type": "uint24[]"
        },
        {
          "internalType": "uint32",
          "name": "period",
          "type": "uint32"
        }
      ],
      "name": "prepareSpecificFeeTiersWithTimePeriod",
      "outputs": [
        {
          "internalType": "address[]",
          "name": "preparedPools",
          "type": "address[]"
        }
      ],
      "stateMutability": "nonpayable",
      "type": "function"
    },
    {
      "inputs": [
        {
          "internalType": "address[]",
          "name": "pools",
          "type": "address[]"
        },
        {
          "internalType": "uint32",
          "name": "period",
          "type": "uint32"
        }
      ],
      "name": "prepareSpecificPoolsWithTimePeriod",
      "outputs": [],
      "stateMutability": "nonpayable",
      "type": "function"
    },
    {
      "inputs": [
        {
          "internalType": "uint128",
          "name": "baseAmount",
          "type": "uint128"
        },
        {
          "internalType": "address",
          "name": "baseToken",
          "type": "address"
        },
        {
          "internalType": "address",
          "name": "quoteToken",
          "type": "address"
        },
        {
          "internalType": "uint32",
          "name": "period",
          "type": "uint32"
        }
      ],
      "name": "quoteAllAvailablePoolsWithTimePeriod",
      "outputs": [
        {
          "internalType": "uint256",
          "name": "quoteAmount",
          "type": "uint256"
        },
        {
          "internalType": "address[]",
          "name": "queriedPools",
          "type": "address[]"
        }
      ],
      "stateMutability": "view",
      "type": "function"
    },
    {
      "inputs": [
        {
          "internalType": "uint128",
          "name": "baseAmount",
          "type": "uint128"
        },
        {
          "internalType": "address",
          "name": "baseToken",
          "type": "address"
        },
        {
          "internalType": "address",
          "name": "quoteToken",
          "type": "address"
        },
        {
          "internalType": "uint24[]",
          "name": "feeTiers",
          "type": "uint24[]"
        },
        {
          "internalType": "uint32",
          "name": "period",
          "type": "uint32"
        }
      ],
      "name": "quoteSpecificFeeTiersWithTimePeriod",
      "outputs": [
        {
          "internalType": "uint256",
          "name": "quoteAmount",
          "type": "uint256"
        },
        {
          "internalType": "address[]",
          "name": "queriedPools",
          "type": "address[]"
        }
      ],
      "stateMutability": "view",
      "type": "function"
    },
    {
      "inputs": [
        {
          "internalType": "uint128",
          "name": "baseAmount",
          "type": "uint128"
        },
        {
          "internalType": "address",
          "name": "baseToken",
          "type": "address"
        },
        {
          "internalType": "address",
          "name": "quoteToken",
          "type": "address"
        },
        {
          "internalType": "address[]",
          "name": "pools",
          "type": "address[]"
        },
        {
          "internalType": "uint32",
          "name": "period",
          "type": "uint32"
        }
      ],
      "name": "quoteSpecificPoolsWithTimePeriod",
      "outputs": [
        {
          "internalType": "uint256",
          "name": "quoteAmount",
          "type": "uint256"
        }
      ],
      "stateMutability": "view",
      "type": "function"
    },
    {
      "inputs": [],
      "name": "supportedFeeTiers",
      "outputs": [
        {
          "internalType": "uint24[]",
          "name": "",
          "type": "uint24[]"
        }
      ],
      "stateMutability": "view",
      "type": "function"
    }
  ],
  "transactionHash": "0xec37370cffdad3f33a4d8c00cad14fa1d1f42ade4a561ad04090e2fadcac637c",
  "args": [
    "0x1F98431c8aD98523631AE4a59f267346ea31F984",
    13
  ],
  "numDeployments": 1,
  "bytecode": "0x60c060405234801561001057600080fd5b50604051620020e6380380620020e683398101604081905261003191610123565b60609190911b6001600160601b03191660805260f81b7fff000000000000000000000000000000000000000000000000000000000000001660a05260008054600180820183558280527f290decd9548b62a8d60345a988386fc84ba6bc95484008f6362f93160ef3e563600a8084048201805462ffffff95839006600390810261010090810a888102199093166101f4909302929092179092558654808601885583810485018054918590068402830a80890219909216610bb8909202919091179055865494850190965581840490920180549190930690910290930a9182021990921661271090910217905561016c565b60008060408385031215610135578182fd5b82516001600160a01b038116811461014b578283fd5b602084015190925060ff81168114610161578182fd5b809150509250929050565b60805160601c60a05160f81c611f41620001a5600039806104815280610a76525080610305528061061c528061095c5250611f416000f3fe608060405234801561001057600080fd5b506004361061009e5760003560e01c8063b7604e5311610066578063b7604e5314610135578063bc4389f71461014a578063d8045eca1461015f578063e85dd38314610172578063f73e5aab146101855761009e565b80630757bc81146100a357806307f7ca9f146100cd5780631c49cbb5146100ed578063354b1a7d1461010d57806343dfc58d14610122575b600080fd5b6100b66100b1366004611c8c565b61019a565b6040516100c4929190611ec4565b60405180910390f35b6100e06100db366004611ba9565b6101c3565b6040516100c49190611ebb565b6101006100fb366004611af9565b610211565b6040516100c49190611d71565b61012061011b366004611b3f565b6102ab565b005b610120610130366004611ce3565b6102ee565b61013d61047f565b6040516100c49190611ee5565b6101526104a3565b6040516100c49190611d84565b6100b661016d366004611c30565b610525565b610100610180366004611a81565b6105a4565b61018d61061a565b6040516100c49190611dcd565b600060606101a985858561063e565b90506101b88686868487610791565b915094509492505050565b6000610206878787878780806020026020016040519081016040528093929190818152602001838360200280828437600092019190915250899250610791915050565b979650505050505050565b60606102988484600080548060200260200160405190810160405280929190818152602001828054801561028e57602002820191906000526020600020906000905b82829054906101000a900462ffffff1662ffffff16815260200190600301906020826002010492830192600103820291508084116102535790505b5050505050610902565b90506102a48183610a70565b9392505050565b6102e9838380806020026020016040519081016040528093929190818152602001838360200280828437600092019190915250859250610a70915050565b505050565b6040516322afcccb60e01b81526001600160a01b037f000000000000000000000000000000000000000000000000000000000000000016906322afcccb9061033a908490600401611eab565b60206040518083038186803b15801561035257600080fd5b505afa158015610366573d6000803e3d6000fd5b505050506040513d601f19601f8201168201806040525081019061038a9190611b88565b60020b6103b25760405162461bcd60e51b81526004016103a990611e72565b60405180910390fd5b60005b600054811015610422578162ffffff16600082815481106103d257fe5b90600052602060002090600a91828204019190066003029054906101000a900462ffffff1662ffffff16141561041a5760405162461bcd60e51b81526004016103a990611de1565b6001016103b5565b5060008054600181018255908052600a8082047f290decd9548b62a8d60345a988386fc84ba6bc95484008f6362f93160ef3e56301805462ffffff948516600393909406929092026101000a928302939092021916919091179055565b7f000000000000000000000000000000000000000000000000000000000000000081565b6060600080548060200260200160405190810160405280929190818152602001828054801561051b57602002820191906000526020600020906000905b82829054906101000a900462ffffff1662ffffff16815260200190600301906020826002010492830192600103820291508084116104e05790505b5050505050905090565b60006060610567878787878080602002602001604051908101604052809392919081815260200183836020028082843760009201919091525061090292505050565b8051909150841461058a5760405162461bcd60e51b81526004016103a990611e3b565b6105978888888487610791565b9150965096945050505050565b60606105e4868686868080602002602001604051908101604052809392919081815260200183836020028082843760009201919091525061090292505050565b805190915083146106075760405162461bcd60e51b81526004016103a990611e3b565b6106118183610a70565b95945050505050565b7f000000000000000000000000000000000000000000000000000000000000000081565b606060006106a18585600080548060200260200160405190810160405280929190818152602001828054801561028e576000918252602091829020805462ffffff1684529082028301929091600391018084116102535790505050505050610902565b905063ffffffff83166106b55790506102a4565b6000815167ffffffffffffffff811180156106cf57600080fd5b506040519080825280602002602001820160405280156106f9578160200160208202803683370190505b5090506000805b8351811015610786578563ffffffff1661072c85838151811061071f57fe5b6020026020010151610b31565b63ffffffff161061077e5783818151811061074357fe5b602002602001015183838060010194508151811061075d57fe5b60200260200101906001600160a01b031690816001600160a01b0316815250505b600101610700565b506102068282610d00565b6000808351116107b35760405162461bcd60e51b81526004016103a990611e11565b6000835167ffffffffffffffff811180156107cd57600080fd5b5060405190808252806020026020018201604052801561080757816020015b6107f46119d5565b8152602001906001900390816107ec5790505b50905060005b84518110156108b45760008463ffffffff16116108455761084085828151811061083357fe5b6020026020010151610da9565b610862565b61086285828151811061085457fe5b6020026020010151856110d2565b83838151811061086e57fe5b602002602001015160000184848151811061088557fe5b6020908102919091018101516001600160801b03909316920191909152600291820b90910b905260010161080d565b50600081516001146108ce576108c982611441565b6108e8565b816000815181106108db57fe5b6020026020010151600001515b90506108f6818989896114fd565b98975050505050505050565b60606000825167ffffffffffffffff8111801561091e57600080fd5b50604051908082528060200260200182016040528015610948578160200160208202803683370190505b5090506000805b8451811015610a5b5760007f00000000000000000000000000000000000000000000000000000000000000006001600160a01b0316631698ee82898989868151811061099757fe5b60200260200101516040518463ffffffff1660e01b81526004016109bd93929190611d49565b60206040518083038186803b1580156109d557600080fd5b505afa1580156109e9573d6000803e3d6000fd5b505050506040513d601f19601f82011682018060405250810190610a0d9190611a65565b90506001600160a01b03811615610a525780848480600101955081518110610a3157fe5b60200260200101906001600160a01b031690816001600160a01b0316815250505b5060010161094f565b50610a668282610d00565b9695505050505050565b6001603c7f000000000000000000000000000000000000000000000000000000000000000060ff16830263ffffffff16040160005b8351811015610b2b57838181518110610aba57fe5b60200260200101516001600160a01b03166332148f67836040518263ffffffff1660e01b8152600401610aed9190611e9c565b600060405180830381600087803b158015610b0757600080fd5b505af1158015610b1b573d6000803e3d6000fd5b505060019092019150610aa59050565b50505050565b6000806000836001600160a01b0316633850c7bd6040518163ffffffff1660e01b815260040160e06040518083038186803b158015610b6f57600080fd5b505afa158015610b83573d6000803e3d6000fd5b505050506040513d60e0811015610b9957600080fd5b506040810151606090910151909250905061ffff8116610be5576040805162461bcd60e51b81526020600482015260026024820152614e4960f01b604482015290519081900360640190fd5b600080856001600160a01b031663252c09d78461ffff168660010161ffff1681610c0b57fe5b066040518263ffffffff1660e01b8152600401808261ffff16815260200191505060806040518083038186803b158015610c4457600080fd5b505afa158015610c58573d6000803e3d6000fd5b505050506040513d6080811015610c6e57600080fd5b508051606090910151909250905080610cf557856001600160a01b031663252c09d760006040518263ffffffff1660e01b81526004018082815260200191505060806040518083038186803b158015610cc657600080fd5b505afa158015610cda573d6000803e3d6000fd5b505050506040513d6080811015610cf057600080fd5b505191505b504203949350505050565b60608183511415610d12575081610da3565b8167ffffffffffffffff81118015610d2957600080fd5b50604051908082528060200260200182016040528015610d53578160200160208202803683370190505b50905060005b82811015610da157838181518110610d6d57fe5b6020026020010151828281518110610d8157fe5b6001600160a01b0390921660209283029190910190910152600101610d59565b505b92915050565b6000806000806000856001600160a01b0316633850c7bd6040518163ffffffff1660e01b815260040160e06040518083038186803b158015610dea57600080fd5b505afa158015610dfe573d6000803e3d6000fd5b505050506040513d60e0811015610e1457600080fd5b50602081015160408201516060909201519094509092509050600161ffff821611610e6c576040805162461bcd60e51b81526020600482015260036024820152624e454f60e81b604482015290519081900360640190fd5b6000806000886001600160a01b031663252c09d7866040518263ffffffff1660e01b8152600401808261ffff16815260200191505060806040518083038186803b158015610eb957600080fd5b505afa158015610ecd573d6000803e3d6000fd5b505050506040513d6080811015610ee357600080fd5b508051602082015160409092015190945090925090504263ffffffff90811690841614610f815785896001600160a01b0316631a6865026040518163ffffffff1660e01b815260040160206040518083038186803b158015610f4457600080fd5b505afa158015610f58573d6000803e3d6000fd5b505050506040513d6020811015610f6e57600080fd5b505190985096506110cd95505050505050565b60008461ffff1660018661ffff168861ffff16010381610f9d57fe5b0690506000806000808d6001600160a01b031663252c09d7866040518263ffffffff1660e01b81526004018082815260200191505060806040518083038186803b158015610fea57600080fd5b505afa158015610ffe573d6000803e3d6000fd5b505050506040513d608081101561101457600080fd5b508051602082015160408301516060909301519196509450909250905080611069576040805162461bcd60e51b81526020600482015260036024820152624f4e4960e81b604482015290519081900360640190fd5b83880363ffffffff811684890360060b8161108057fe5b059b506000640100000000600160c01b0384890360201b1663ffffffff83166001600160a01b03026001600160c01b0316816110b857fe5b9d9f50909c049c505050505050505050505050505b915091565b60008063ffffffff8316611112576040805162461bcd60e51b8152602060048201526002602482015261042560f41b604482015290519081900360640190fd5b604080516002808252606082018352600092602083019080368337019050509050838160008151811061114157fe5b602002602001019063ffffffff16908163ffffffff168152505060008160018151811061116a57fe5b63ffffffff90921660209283029190910182015260405163883bdbfd60e01b81526004810182815283516024830152835160009384936001600160a01b038b169363883bdbfd9388939192839260449091019185820191028083838b5b838110156111df5781810151838201526020016111c7565b505050509050019250505060006040518083038186803b15801561120257600080fd5b505afa158015611216573d6000803e3d6000fd5b505050506040513d6000823e601f3d908101601f19168201604090815281101561123f57600080fd5b810190808051604051939291908464010000000082111561125f57600080fd5b90830190602082018581111561127457600080fd5b825186602082028301116401000000008211171561129157600080fd5b82525081516020918201928201910280838360005b838110156112be5781810151838201526020016112a6565b50505050905001604052602001805160405193929190846401000000008211156112e757600080fd5b9083019060208201858111156112fc57600080fd5b825186602082028301116401000000008211171561131957600080fd5b82525081516020918201928201910280838360005b8381101561134657818101518382015260200161132e565b505050509050016040525050509150915060008260008151811061136657fe5b60200260200101518360018151811061137b57fe5b602002602001015103905060008260008151811061139557fe5b6020026020010151836001815181106113aa57fe5b60200260200101510390508763ffffffff168260060b816113c757fe5b05965060008260060b1280156113f157508763ffffffff168260060b816113ea57fe5b0760060b15155b156113fe57600019909601955b63ffffffff88166001600160a01b0302640100000000600160c01b03602083901b166001600160c01b0382168161143157fe5b0496505050505050509250929050565b6000806000805b84518110156114c45784818151811061145d57fe5b6020026020010151602001516001600160801b031685828151811061147e57fe5b60200260200101516000015160020b028301925084818151811061149e57fe5b6020026020010151602001516001600160801b0316820191508080600101915050611448565b508082816114ce57fe5b0592506000821280156114e957508082816114e557fe5b0715155b156114f657600019909201915b5050919050565b600080611509866115f4565b90506001600160801b036001600160a01b03821611611578576001600160a01b038082168002908481169086161061155857611553600160c01b876001600160801b031683611926565b611570565b61157081876001600160801b0316600160c01b611926565b9250506115eb565b60006115976001600160a01b0383168068010000000000000000611926565b9050836001600160a01b0316856001600160a01b0316106115cf576115ca600160801b876001600160801b031683611926565b6115e7565b6115e781876001600160801b0316600160801b611926565b9250505b50949350505050565b60008060008360020b1261160b578260020b611613565b8260020b6000035b9050620d89e8811115611651576040805162461bcd60e51b81526020600482015260016024820152601560fa1b604482015290519081900360640190fd5b60006001821661166557600160801b611677565b6ffffcb933bd6fad37aa2d162d1a5940015b70ffffffffffffffffffffffffffffffffff16905060028216156116ab576ffff97272373d413259a46990580e213a0260801c5b60048216156116ca576ffff2e50f5f656932ef12357cf3c7fdcc0260801c5b60088216156116e9576fffe5caca7e10e4e61c3624eaa0941cd00260801c5b6010821615611708576fffcb9843d60f6159c9db58835c9266440260801c5b6020821615611727576fff973b41fa98c081472e6896dfb254c00260801c5b6040821615611746576fff2ea16466c96a3843ec78b326b528610260801c5b6080821615611765576ffe5dee046a99a2a811c461f1969c30530260801c5b610100821615611785576ffcbe86c7900a88aedcffc83b479aa3a40260801c5b6102008216156117a5576ff987a7253ac413176f2b074cf7815e540260801c5b6104008216156117c5576ff3392b0822b70005940c7a398e4b70f30260801c5b6108008216156117e5576fe7159475a2c29b7443b29c7fa6e889d90260801c5b611000821615611805576fd097f3bdfd2022b8845ad8f792aa58250260801c5b612000821615611825576fa9f746462d870fdf8a65dc1f90e061e50260801c5b614000821615611845576f70d869a156d2a1b890bb3df62baf32f70260801c5b618000821615611865576f31be135f97d08fd981231505542fcfa60260801c5b62010000821615611886576f09aa508b5b7a84e1c677de54f3e99bc90260801c5b620200008216156118a6576e5d6af8dedb81196699c329225ee6040260801c5b620400008216156118c5576d2216e584f5fa1ea926041bedfe980260801c5b620800008216156118e2576b048a170391f7dc42444e8fa20260801c5b60008460020b13156118fd5780600019816118f957fe5b0490505b640100000000810615611911576001611914565b60005b60ff16602082901c0192505050919050565b600080806000198587098686029250828110908390030390508061195c576000841161195157600080fd5b5082900490506102a4565b80841161196857600080fd5b6000848688096000868103871696879004966002600389028118808a02820302808a02820302808a02820302808a02820302808a02820302808a02909103029181900381900460010186841190950394909402919094039290920491909117919091029150509392505050565b604080518082019091526000808252602082015290565b60008083601f8401126119fd578182fd5b50813567ffffffffffffffff811115611a14578182fd5b6020830191508360208083028501011115611a2e57600080fd5b9250929050565b80356001600160801b0381168114611a4c57600080fd5b919050565b803563ffffffff81168114611a4c57600080fd5b600060208284031215611a76578081fd5b81516102a481611ef3565b600080600080600060808688031215611a98578081fd5b8535611aa381611ef3565b94506020860135611ab381611ef3565b9350604086013567ffffffffffffffff811115611ace578182fd5b611ada888289016119ec565b9094509250611aed905060608701611a51565b90509295509295909350565b600080600060608486031215611b0d578283fd5b8335611b1881611ef3565b92506020840135611b2881611ef3565b9150611b3660408501611a51565b90509250925092565b600080600060408486031215611b53578283fd5b833567ffffffffffffffff811115611b69578384fd5b611b75868287016119ec565b9094509250611b36905060208501611a51565b600060208284031215611b99578081fd5b81518060020b81146102a4578182fd5b60008060008060008060a08789031215611bc1578081fd5b611bca87611a35565b95506020870135611bda81611ef3565b94506040870135611bea81611ef3565b9350606087013567ffffffffffffffff811115611c05578182fd5b611c1189828a016119ec565b9094509250611c24905060808801611a51565b90509295509295509295565b60008060008060008060a08789031215611c48578182fd5b611c5187611a35565b95506020870135611c6181611ef3565b94506040870135611c7181611ef3565b9350606087013567ffffffffffffffff811115611c05578283fd5b60008060008060808587031215611ca1578384fd5b611caa85611a35565b93506020850135611cba81611ef3565b92506040850135611cca81611ef3565b9150611cd860608601611a51565b905092959194509250565b600060208284031215611cf4578081fd5b813562ffffff811681146102a4578182fd5b6000815180845260208085019450808401835b83811015611d3e5781516001600160a01b031687529582019590820190600101611d19565b509495945050505050565b6001600160a01b03938416815291909216602082015262ffffff909116604082015260600190565b6000602082526102a46020830184611d06565b6020808252825182820181905260009190848201906040850190845b81811015611dc157835162ffffff1683529284019291840191600101611da0565b50909695505050505050565b6001600160a01b0391909116815260200190565b602080825260169082015275151a595c88185b1c9958591e481cdd5c1c1bdc9d195960521b604082015260600190565b60208082526010908201526f4e6f20646566696e656420706f6f6c7360801b604082015260600190565b6020808252601d908201527f476976656e207469657220646f6573206e6f74206861766520706f6f6c000000604082015260600190565b60208082526010908201526f24b73b30b634b2103332b2903a34b2b960811b604082015260600190565b61ffff91909116815260200190565b62ffffff91909116815260200190565b90815260200190565b600083825260406020830152611edd6040830184611d06565b949350505050565b60ff91909116815260200190565b6001600160a01b0381168114611f0857600080fd5b5056fea26469706673582212203afc7533f32371b12d441a16485030ff20c57dd475ea8e52ddd29b09b4ddfbfc64736f6c63430007060033"
}